OH357       810008794GR10694777                     2025081841240485            F01                                                                   Renaissance Charter School At Goldenrod Renaissance Charter School at Goldenrod                     6004 S Goldenrod Rd                                                                                                     Orlando                       FL                                      328228782           USA                           Remi4075362952          mtirado@goldenrodcharter.org                                                    Renaissance Charter School at Goldenrod                     Miriam Tirado                           Renaissance Charter School at Goldenrod                     6004 S. Goldenrod Rd.                                                                                                   Orlando                       FL                                      FL                  USA                               321 697 1020        mtirado@goldenrodcharter.org                                                    99999999999         OSBU                                                                                                                                                                                                                                                      00000000000000000000000000C00000000   0000000000000000000000000000000000000000000000000000                                                                                                                                                                                                                                                           1805                                                        Karle Hunter                            810008794           
OD810008794GR10694777 41240485            0002    78592                         0000000135                                                                R                                                                                                                                                                                                                                                                                                                                                                                                                                                                                                                                      00000000000000000000000000000000000000000000000000000000000073600OP          
OD810008794GR10694777 41240485            0003    78593                         0000000115                                                                R                                                                                                                                                                                                                                                                                                                                                                                                                                                                                                                                      00000000000000000000000000000000000000000000000000000000000073600OP          
OD810008794GR10694777 41240485            0004    78594                         0000000135                                                                R                                                                                                                                                                                                                                                                                                                                                                                                                                                                                                                                      00000000000000000000000000000000000000000000000000000000000073600OP          
OD810008794GR10694777 41240485            0005    78595                         0000000120                                                                R                                                                                                                                                                                                                                                                                                                                                                                                                                                                                                                                      00000000000000000000000000000000000000000000000000000000000073600OP          
OD810008794GR10694777 41240485            0006    78590                         0000000125                                                                R                                                                                                                                                                                                                                                                                                                                                                                                                                                                                                                                      00000000000000000000000000000000000000000000000000000000000073600OP          